:10000000F8FF0020110400001B3900001B3900001C
:100010001B3900001B3900001B3900001B39000090
:100020001B3900001B3900001B3900001B39000080
:100030001B3900001B3900001B3900001B39000070
:100040001B3900001B3900001B3900001B39000060
:10040000FFFFFFFFFFFFFFFFFFFFFFFFFEFFFFFFFD
:1004100062B604F025F8FEE72DE9F0439FB000BF77
:1004200065A6269CDFF8B48A8DF83B400291002433
:100430000B944FF0FF37044691461D460AE019F829
:10044000011B0298A0470028029000F0A1800B98A1
:10045000401C0B9099F8000050B12528EFD10021E5
:100460000022059106920791089209910A9203E0F1
:100470000B98A5E041F0010119F8010F2028F9D0EF
:1004800023280CD02B2804D02D2805D0302809D0C3
:1004900080E041F00201EFE741F00401ECE741F0B8
:1004A0000801E9E741F01001E6E70D920AE00D9836
:1004B000404505DA00EB800002EB4002303A0D9235
:1004C00009F1010999F80020A2F130000A28EED3C1
:1004D00099F800002E2818BF0C9726D119F8010FA3
:1004E0002A2808D12868286009F1010950F8042B4E
:1004F00028600C9219E02D280CBF09F10109002099
:1005000000220C920BE040B90C9A424505DA02EB4E
:10051000820203EB4203303B0C9309F1010999F885
:100520000030A3F130020A2AEDD3ADF8381030467E
:1005300099F8001000F086FE08B119F8010B8DF84B
:100540003A009DF83A00682805D199F8000068281B
:100550000CD1622106E06C2804BF99F800006C28D9
:1005600004D171218DF83A1009F1010910A8049005
:100570002A4619F8013B6946204600F061F838B96F
:1005800010AA6946204600F08FF900287FF562AF77
:10059000384615E02A2888D12A682A6052F8040BC8
:1005A0002A6000280D9003D540420D9041F00401CF
:1005B00009F101098CE70000686A6C747A4C00004C
:1005C0001FB0BDE8F083622820D0682811D06A28C7
:1005D00003D06C2827D0712825D10868C01D20F0D1
:1005E00007000860D0E9002308300860194610466B
:1005F0007047002A0A680A60106803D0121D0A605A
:1006000000B217E0121D0A6080B217E0002A0A68E3
:100610000A60106803D0121D0A6040B20AE0121D81
:100620000A60C0B20AE0002A0A680A60106803D0B3
:10063000121D0A60C1177047121D0A600021704721
:1006400070B51C460D46B4F125002E69114600F028
:1006500019811C3868D0001F022865D9133842D090
:10066000093861D0801E16D0401E1ED0401E0228C0
:100670005AD9001F19D0401F00F08180401E32D08F
:10068000401E00F0CB80C01E00F0DA80801E2AD011
:10069000C01E28D0FCE06869421C6A610A680A60D2
:1006A00052F8043B0A603354FCE095F83A0001220A
:1006B000FFF789FFC5E90001002904D56869411CDD
:1006C00069612D220DE0288F810704D56869411CDE
:1006D00069612B2205E0C00721D56869411C696169
:1006E000202232541BE095F83A000022FFF76BFFFE
:1006F000C5E9000195F83800010710D5D5E90023B8
:10070000002B08BF002A0AD044F02000782806D128
:10071000686930213154401C421C6A6134542146BE
:1007200068693044E86087E00868C01D20F0070071
:100730000860D0E9002308300860C5E90023D5E946
:100740000001C80F04D06869411C69612D220DE0C9
:10075000288F810704D56869411C69612B2205E057
:10076000C00704D56869411C696120223254686958
:100770003044E8602146284600F0C4F992E005F1D3
:100780003A02507820B14FF0FF340FF6202062E09B
:100790001078622808D0682824D06A2812D06C28E3
:1007A0002ED071280ED02BE00A680A6052F8040B94
:1007B0000A6020B94FF0FF340FF608204BE0E96AD9
:1007C00001706FE00A680A6052F8040B0A6020B9F1
:1007D0004FF0FF340FF6EC103DE0EA6AD317C0E9A2
:1007E00000235FE00A680A6052F8040B0A6020B92F
:1007F0004FF0FF340FF6CC102DE0E96A018051E094
:100800000A680A6052F8040B0A6020B94FF0FF34FE
:100810000FF6B0101FE0E96A016043E00A680A6061
:1008200052F8040B0A60002120F0000221F0FF338F
:10083000C5E90023EE607821284600F0BBF831E0DE
:100840000868086050F8044B0860EC603CB94FF051
:10085000FF340FF6881000F001FD201A70BD2E6BDA
:10086000002E04D5204600F019FD044608E032466B
:100870000021204600F02EFD002814BF041B344642
:10088000AC610FE06869411C69612522325409E0BE
:100890006969481C686125227254210002D0431CFA
:1008A0006B613454002070BD2DE9FC410F460646B3
:1008B00090467A6B7869396ABC6A121AB869521A1A
:1008C000796A121AF869521A121A97F83800141B2A
:1008D00041070FD42020002C8DF800000ADD2546AA
:1008E00001236A463946304600F048FC00285DD1B5
:1008F0006D1EF5D17B6942463946304600F03EFC1C
:10090000002853D130208DF800003D6A002D09DD0C
:1009100001236A463946304600F030FC002845D1B4
:100920006D1EF5D1BB69FA683946304600F026FCE9
:1009300000283BD130208DF800007D6A002D08DDB5
:1009400001236A463946304600F018FC70BB6D1E24
:10095000F6D1F868B969FB6942183946304600F0AB
:100960000DFC18BB30208DF80000BD6A002D08DD9D
:1009700001236A463946304600F000FCB0B96D1ECE
:10098000F6D197F8380041070DD52020002C8DF8BE
:10099000000008DD01236A463946304600F0EEFBD0
:1009A00020B9641EF6D10020BDE8F6814FF0FF307B
:1009B000BDE8F6812DE9FC4307466F293E6908BF73
:1009C000082405D041F02000782814BF0A24102400
:1009D0003C25D7E90023642918BF69299046994628
:1009E00005D1002B03D5D8F1000869EB4909B9F10D
:1009F000000F08BFB8F1000F1FD1386BE8B9082C01
:100A00004CD197F83800010748D530203B2586F8AF
:100A10003B0043E000280ED597F8380000F01400A2
:100A2000102808D17B6B7969386A5B1A1B1A9A1AED
:100A3000002AC8BF3A62BDE8F3838DF80010404633
:100A400049462246E31700F071FC3032D0B26D1EE9
:100A50003A28019504DB9DF80000A0F151018A18A5
:100A60007255404649462246E31700F05FFC804637
:100A70005FEA010908BFB8F1000F03D0F8687119E7
:100A80008842DCD3082C09D197F83800010705D536
:100A9000705D302802D06D1E30207055C5F13C02CB
:100AA000BA617119F960386B8242B3DA821A3A621C
:100AB0004FF6EF70398F01403987BDE8F3832DE998
:100AC000D04306460F4614464FF00008DFF8109456
:100AD00012E0E00707D542464B463046394600F063
:100AE0003DFD06460F464046494642464B4600F00D
:100AF00035FD641080468946002CEAD130463946DF
:100B0000BDE8D0832DE9F84F05468A464AF0200417
:100B10008EB0D5E90089612C02AE09D0286B00287F
:100B200048BF062003D408BF672C01D101202863E9
:100B3000D5E900014A005215521C0DD10B030BD010
:100B4000AAF1610103201A29A86102D20FF2A8615B
:100B500010E00FF2A8610DE04A005215521C0ED1B0
:100B60000B030CD1AAF1610103201A29A86116D345
:100B70000FF29061E868032200F0C2FDC0E1CDE908
:100B80000C01DDE90C2323F00043B3F5801F0DD2E7
:100B90000027002B08BF002A019703D111E00FF2B4
:100BA0006061E7E701AA00F0FFFD0AE0CD48CE4909
:100BB00000EB1350DDE90C2301900B40CB491046AC
:100BC0001943C5E90001612C0DD1E868302101709D
:100BD000821CBAF1610FEA600CBF78215821417084
:100BE0006869801C6861D5E90001CDE90C01DDE987
:100BF0000C2333F0004104BF0028002300F048819B
:100C0000612C40F0A080286B494600284CBF4FF073
:100C1000210B00F1010B404600220023DDE90C8985
:100C200000F0FAFD01990BF1010738BF89F0004986
:100C3000091F002F01918DF808200DF1090040F3E4
:100C40003581A949009106464046494600220023C5
:100C500000F0FAFD80F029814800400D00F11C02EF
:100C600011D0002A0FDD40F2FF739A4205DBA04944
:100C700009F000400143002011E0009B194041EAC7
:100C8000025140460BE028F0000039F0004108BF57
:100C900000280FBF49461C22494600F0EDFD804662
:100CA000894600F087FEFF1F002F044609DD00F093
:100CB0009FFE02460B464046494600F0ABFE80468A
:100CC0008946F01D072104E004F00F0200F8012D11
:100CD0002411002C01DD491EF6D5491E5CBF0022FF
:100CE00000F8012DF9D5DCE00020194602AA0A44DB
:100CF00000E05B1E12F80149491E8442F9D00F281A
:100D000004D10DF10900425C521C4254002904D563
:100D10000198001D02AE5B1C0190581E0CD43118C6
:100D2000AAF13A040A783032D7B23A2FA8BFA218F3
:100D3000401E01F80129F5D5286B002840F1A78055
:100D4000591E2963A3E001996A4A47F2975041432B
:100D500091FBF2F2019229F00046D2F1070204DD84
:100D600040463146FFF7ABFE0AE05242002062499E
:100D7000FFF7A5FE02460B464046314600F0BCFE9A
:100D80008046662C286B06BF019F0A3706273F184E
:100D9000142FC8BF142730208DF8080089460DF1A4
:100DA000090000E03046002F34DD06464046494643
:100DB00000F0C6FF01460A4606F1080304200A2691
:100DC000B2FBF6F606EB860EA2EB4E02303203F8CB
:100DD000012C0A22B6FBF2F202EB820EA6EB4E06C3
:100DE0003036401E03F8026DE9D1083F002F03F1B1
:100DF0000806D7DD084600F0B7FF02460B4640461E
:100E0000494600F007FE00223C4B00F0A7FB80465D
:100E10008946CBE70DF10901401A0DF1090604E0FE
:100E20000199491E401E0191761C31783029F7D076
:100E3000662C02D10199491C03E0652C0CBF0121ED
:100E400000212B6BCB189842B8BF431E002B1ED439
:100E5000834204DAF05C3528A8BF392000DA30205C
:100E60001946721E02EB010800E05B1E18F801999A
:100E7000491E8145F9D0392802D1705C401C70545C
:100E8000002904D50198401C16465B1C019001986E
:100E900000B200901BB232465146284600F034F8AA
:100EA0002EE0C61D002F3FF7CFAE30460DF10901F1
:100EB000401A03465845C8BF5B46002B0DF1090692
:100EC0003FF53AAF8342BFF60FAF0DF10900C15CA9
:100ED00007297FF709AF0F2007E70000CBCCCC0C28
:100EE0000000244002FCFFFFFFFF0F800000E03FF6
:100EF0000000F07FA08601000000F03F84D79741FA
:100F00000FB0BDE8F08F00002DE9F84783B006462A
:100F10008A461746984600F035FFB8F1000F406A40
:100F2000356B90F8009002DC4FF00108B6A74AF04C
:100F30002000BDF93040662808BF641C15D0672822
:100F400040F0848014F1040FC0F28680AC4280F23D
:100F5000838096F83800641C010702D4A845B8BF06
:100F6000454620B22D1A48BF00250FFA84FAF068D2
:100F7000B169BAF1000F25DC4A1C30234354002D1F
:100F800003DC96F83800010703D5F06800F80290FA
:100F9000521C15EB0A0FB8BF6C4220B244194142F3
:100FA0004445B8BFA046B26171620FFA88F5F56199
:100FB000F068B3692A463946184400F0A1FB641B67
:100FC000B462C4E022B29045084417DA424639467A
:100FD00000F096FBB0694044B061AAEB0801002D17
:100FE000716203DC96F838100A0705D5F16801F83C
:100FF0000090F069401CF061B562A8E0394600F04D
:101000007FFBB069002D5044A8EB040803DC96F880
:1010100038100A0703D5F16801F80090401CB06150
:101020000FFA88F08542F368B069B8BFA8460FFA96
:1010300088F207EB0A01184400F062FBB1690FFA6D
:1010400088F00144B161281A706280E0BAF1610F42
:1010500014D14FF0700A16E0A84504DA96F838105B
:101060000A0758BF45466D1E48BF0025BAF1670FF5
:1010700014BF4FF0450A4FF0650A04E0BAF1410F82
:1010800008BF4FF0500AB169F368481CB061002DE9
:1010900017F8012B5A5403DC96F838100A071BD5B1
:1010A000F168431CB36101F80090002D14DDA8F134
:1010B00001080FFA88F039468542F768B8BFA8469C
:1010C0000FFA88F2F81800F01BFBB0690FFA88F1EC
:1010D00008446D1AB0617562F068B1690844002C6B
:1010E00080F800A003D42B224270811C03E02D2144
:1010F00041706442811C00206A460AE023460A24AB
:1011000093FBF4F404EB8405A3EB450302F8013BE5
:10111000401C24B2002CF1DC012806DC4AF020023D
:10112000652A04BF302201F8012B48B9302001F8AC
:10113000010B07E0401E1DF80030303301F8013B81
:101140000028F7DCF268B0691044091AF16196F8DA
:10115000380000F0140010280DD17269B169706A6E
:101160008A18F1698218B06A8A188218706B8242F4
:10117000BCBF821A326204B0BDE8F087F8B50546FC
:101180000E4617461C46002074B117F8011BB068C4
:10119000A847B06030B1F06A401CF0620020641EC5
:1011A000F3D1F2BD4FF0FF30F2BD00007072696EF6
:1011B00074665F733A20256E20646973616C6C6F8E
:1011C000776564007072696E74663A2062616420AB
:1011D000256E20617267756D656E74007072696E40
:1011E00074665F733A2062616420257320617267C0
:1011F000756D656E740000006E616E004E414E00AC
:10120000696E6600494E4600300030B4002513E098
:1012100050F8042BD30744BFA9F101039A18091F02
:10122000042942F8045BFAD213468C0744BF1580A8
:101230009B1CC90748BF1D7050F8041B0029E7D14B
:1012400030BC7047C9B202788A421AB11CBF10F88C
:10125000012FF9E718BF00207047000080B500B9E2
:1012600006A005490B681BB122220021984701E026
:1012700000F08CFD222002BD840EFF1F636F6E7391
:10128000747261696E742068616E646C65723A2074
:10129000626164206D6573736167650000F101032D
:1012A000810704D010F8011B820781B1FAD10268CE
:1012B000A2F10131914311F0803104BF50F8042FA5
:1012C000F6E709BAB1FA81F100EBD100401CC01A6F
:1012D00070470000C9B2830706D0521E22D310F80F
:1012E000013B9942F7D11FE0083A13D302F10402FF
:1012F00041EA012141EA014150F8043B121F21BF9C
:101300004B40A3F1013C2CEA030C1CF0803FF3D0CE
:10131000C9B2001F083210F8013B521E28BF91EAE3
:10132000030FF8D818BF0120401E7047BBBBE1B1C6
:10133000B2F5803F80F07E80022A1ED98C46B1FB38
:10134000F2F102FB11C31B0443EA1043B3FBF2FCAE
:1013500002FB1C3380B240EA0343B3FBF2F002FB12
:10136000103240EA0C4000237047022A05D9844617
:10137000B0FBF2F002FB10C270474AB105D100F099
:10138000010249085FEA30007047002200237047DD
:1013900000F000BD0B0002000021002070479042C9
:1013A00071EB030CF6D3B3F5803F2FD2F0B5B3FA4F
:1013B00083F7B1FA81F4A7F10F0E3D1B5340CEF134
:1013C000200602FA0EF2F3415340B5F10F0746D85A
:1013D0000F3C2C444140C4F12006A040F141414063
:1013E000B1FBF3F603FB1611A2FB0645001BA94156
:1013F00002D2761E8018594180EA010221FA0EF3CA
:1014000062FA0EF200215A403046F0BD30B4B1FB12
:10141000F3FC03FB1C11A2FB0C45001BA94103D2EA
:10142000ACF1010C8018594130BC02460B466046B5
:1014300000217047B2F1807F65D3F0B5B2FA82F730
:10144000B1FA81F4C7F10F063D1B22FA06F307F14A
:10145000110EF24120355A40B5F10F07B8D941407D
:10146000C4F12006A040F1414140B1FBF3FC03FB75
:101470001C11A2FB0C45001BA94103D2BCF1010CBD
:10148000801859410F2F12D30F3FC90341EA504131
:10149000B1FBF3F603FB1611A2FB0645D4EBC030FB
:1014A000A94102D2761E8018594146EACC3C07B3C6
:1014B0004140C7F12006B840F1414140B1FBF3F68D
:1014C00003FB1611A2FB0645001BA94102D2761EA2
:1014D0008018594180EA010221FA0EF3C7F1200475
:1014E00062FA0EF20CFA07F05A402CFA04F130437B
:1014F000F0BD80EA010221FA0EF3002162FA0EF239
:1015000060465A40F0BD8C46B1FBF2F102FB11C3BC
:101510001B0243EA1063B3FBF2FC02FB1C331B0209
:101520004CEA002043EA1063B3FBF2FC02FB1C33DD
:101530001B024CEA002043EA1063B3FBF2FC02FBFF
:101540001C331B024CEA002043EA1063B3FBF2FC9D
:1015500002FB1C324CEA002000237047B0B581EA40
:10156000030C0CF0004C40F2FF7515EA11541DBF3E
:1015700015EA1357AC42AF4239E0E41923EA455368
:1015800043F48013C90241F0004141EA505EC702B2
:101590001100A7FB020200284FF00000EEFB012023
:1015A0004FF00001E3FB072118BF42F00102401891
:1015B00000214941E3FB0E01A4F580640F0302D230
:1015C00052004041494154F101046CDD470872F179
:1015D000004250F1000051EB0451A1F580115CBFB5
:1015E00041EA0C01B0BD4CEA05510020B0BD05EA4E
:1015F0001357AC4214BFAF4241E050EA410E1CBF4A
:1016000052EA430E02E061460020B0BD24423C4451
:101610001BD15FEA070EF6D0090302BF0146002086
:10162000AEF1140EB1FA81F7AEEB070401FA07FE32
:101630000C37C7F1200100FA07F7C8404EEA000E48
:1016400023EA455343F48013A2E733F00043B3FA8F
:1016500083F704BFB2FA82FE77440B3FE41BB7F175
:10166000200E2FBF02FA0EF3BB40C7F1200E22FA64
:101670000EFE38BF43EA0E03BA40641C82E750EA0C
:10168000410E14BF52EA430E6FF000014FF40017F1
:1016900017EB430F8ABF194617EB410FB5E74CEA2A
:1016A00005510020B0BDD4F10104B4F120070FDAD8
:1016B000C4F12007520828BF42F0010210FA07F5D2
:1016C00001FA07F7E1BF2A43E0403843E1400FE069
:1016D000352C98DCC7F1200452EA400220FA07F2C8
:1016E00018BF42F0010231FA07F0A1400A4300217D
:1016F00072F1004250F1000051EB0C01B0BD00004E
:1017000062B38B0708D0521E11F8013B00F8013B71
:1017100000F024808B07F6D1830740F0208000BFC3
:10172000103A07D330B4B1E83810103AA0E83810B6
:10173000F9D230BC530724BFB1E80810A0E8081064
:1017400044BF51F8043B40F8043BD20724BF31F8B2
:10175000022B20F8022B44BF0B7803707047121F36
:1017600017D35B0009D151F8043B20F8023B1B0C56
:10177000121F20F8023BF6D20BE051F8043B00F8B0
:10178000013B1B0A20F8023B1B0C121F00F8013B17
:10179000F3D238BF121D521E24BF11F8013B00F8CE
:1017A000013BF8D87047000010B5144600F002F86D
:1017B000226010BDC1F30A5343B14A0012F5001F65
:1017C00028D2A3F2FE32A1EB0251704750EA410C3D
:1017D00020D001F0004C31EA0C01B1FA81F204BFD3
:1017E000B0FA80F3D2180B3AB2F120032CBF00FA02
:1017F00003F1914041EA0C013EBFC2F1200C20FAF6
:101800000CF319439040524240F2FD33D21A01EBDF
:1018100003517047002270474FF4001C1CEB410F2E
:1018200094BF1CEB430F09E041EA030C50EA4C0C57
:1018300052EA0C0C03D2994208BF9042704714BF81
:101840008B428242704700004FF4001C1CEB410F9A
:1018500094BF1CEB430F09E041EA030C50EA4C0C27
:1018600052EA0C0C03D28B4208BF8242704714BF6D
:101870009942904270470000124254D440F2FF7CDB
:101880001CEA11530FD0634531D09B1863453CBF10
:1018900001EB0251704701F0004141EA0C51002078
:1018A000AFF30080704750EA410320D001F0004CB4
:1018B00091EA0C011CD0B1FA81F30B3B9A420DD98D
:1018C000D21A994051EA0C01C3F1200C20FA0CFC09
:1018D00061449840531C40F2FF7CD7E7914041EAB5
:1018E0000C01C2F1200C20FA0CF319439040704710
:1018F000B0FA80F31533202BE0D3202AEED3203A20
:10190000203B9A4209D9D21A00FA03F141EA0C01AC
:101910000020531C40F2FF7CB8E700FA02F141EAD4
:101920000C0100207047524240F2FF7C1CEA115328
:101930000DD06345DBD0B2EB030C3CBFA1EB0251F1
:1019400070470CF1010221EA035141F4801150EA81
:10195000410CCCD001F0004C352A27DC30B481EAB0
:101960000C01B2F1200309DAC2F12003044601FAA6
:1019700003F5D0402843D1409C400CE0C3F1200245
:10198000450020FA03F418BF44F0010421FA03F0E3
:1019900091400C43002174F1004550F1000051EBDF
:1019A0000C01244230BC7FF47BAF704761460020BD
:1019B00076E70000C1F30A5340F2FE329B1A14DDB1
:1019C000D3F120034FEAE17208DDC90241EA505128
:1019D00041F00040D84080185040704703F2E13099
:1019E00010B1D24382F000407047002070470000E1
:1019F000C11768B14840401AB0FA80F29040D21C3A
:101A0000C907C2F5846241EA025202EBD0214005C7
:101A10007047000070B44FF0004591EA030F40F1A9
:101A2000C3816B40841A71EB030603D2001BB141E2
:101A3000121973414FF4001C1CEB410F34BF7CEBB7
:101A4000430442E00C0DA4EB1356352E4FDC45EA5F
:101A5000C323DB0A45EAC121C912B6F120050DDD19
:101A600063FA05F6EB4086EA0305124218BF45F01B
:101A70000105C01851F100010CD213E062FA06F51D
:101A8000F2405540F3415A40B340F3405A40801869
:101A9000594107D349085FEA30005FEA350528BF9E
:101AA00045F0010501F58011420875F1004250F141
:101AB000000041EB04514E0016F5001F70BC38BF0A
:101AC00070470020090D090570471CEB410F10D22B
:101AD00052EA43060BD0BCEB410F05D80C0DAB43CB
:101AE000661E342EB6DD02E0AB438018594170BC4F
:101AF000704770BC70470000F0B540F2FF7581EA96
:101B0000030C0CF0004C15EA11541DBF15EA1357D5
:101B1000AC42AF42E5E0BC41C1F31301C3F3130390
:101B2000801A994143F4801304D2641E4000494155
:101B300080185941C90241EA5051B1FBF3F603FB49
:101B40001611A2FB0675D7EBC020A94102D2761E62
:101B500080185941C90241EA5051B1FBF3FE03FB21
:101B60001E11A2FB0E75D7EBC020A94103D2AEF126
:101B7000010E80185941890241EA9051760546EAE2
:101B80008E2EB1FBF3F603FB1611A2FB0675D7EB05
:101B90008020A94102D2761E80185941C90241EA2B
:101BA00050514EEA060EB1FBF3F603FB1611A2FBF1
:101BB0000675D7EBC020A94102D2761E8018594184
:101BC000C90241EA5051B1FBF3F703FB1711A2FB25
:101BD0000735D3EBC020A94167F100070CBF0042D5
:101BE00047F0010766F3D5274FEA1E31B80814F510
:101BF000806412DDBD0775F1004250EB0E5051EBD1
:101C0000045111F5801F5CBF41EA0C01F0BD4CF09E
:101C10007F6141F0E0410020F0BDBD076D0840EA62
:101C20000E5041F48011D4F10104B4F120060ADA17
:101C3000C4F120060200E04001FA06F3E140184337
:101C4000B24015430EE0342C13DCC6F1200445EA03
:101C500040056D0820FA06F2154321FA06F0A1406E
:101C60000D43002175F1004250F1000051EB0C01D1
:101C7000F0BD00205FEA0C01F0BDCFB992185B41C6
:101C8000B3FA83F704BFB2FA82F6BF190B3FB7F17C
:101C900020062FBF02FA06F3BB40C7F1200622FA46
:101CA00006F638BF3343BA401CB1E419641E33E76B
:101CB0007F4231F00041B1FA81F404BFB0FA80F6FE
:101CC000A4190B3CB4F120062FBF00FA06F1A14085
:101CD000C4F1200620FA06F638BF3143A0403C1B71
:101CE0001AE7AC421ABF05EA1357AF4212E050EAB6
:101CF00041061CBF52EA4306BFE750EA410730469F
:101D000061461CBF41EA0551F0BD52EA430C08BFD1
:101D1000C143F0BD00204FF4001616EB410F98BFF1
:101D200016EB430F08BF16EB410F24BFC14305E07C
:101D300016EB430F0CBF61464CEA0551F0BD0000A5
:101D4000400D491840EA81200CD2490DA1F580616F
:101D5000491C40F0004005DBD1F11F0154BFC840D1
:101D6000C017704700207047014648B1B0FA80F1B3
:101D70008840C91CC1F58461090501EBD0214005EB
:101D80007047000000487047080CFF1F012000F05A
:101D9000C1B800007047000070B44FF0004591EAF0
:101DA000030F7FF53FAE6B40841A71EB030604D23C
:101DB0006E40001BB141121973414FF4001C1CEB23
:101DC000410F34BF7CEB430683E00C0DA4EB1356AC
:101DD000362E00F37C80012E45EAC32341DC43EA22
:101DE000525312BFD20292025B08240545EAC12178
:101DF00041EA5051D2EBC020994125D407D1B0FA25
:101E000080F610FA06F162D00020203608E0B1FA20
:101E100081F6B140C6F1200220FA02F21143B0402F
:101E20004FEAF474B4EB465434F001064FEA7404FC
:101E30000AD8D6F50016760D04F00044F04061FA99
:101E400006F25040F1404840C00A40EA415021F0BB
:101E5000004128BF5FEA500550F1000044EBD1215A
:101E600035E0DB0A45EAC121C90AB6F120050EDDDD
:101E700042EA0242120CC5F1200603FA06F6EB40D4
:101E800042EA06056D42984161F100010DE062FAF7
:101E900006F5F240554063FA06FC82EA0C02F34074
:101EA0005A406D42904161EB030111F4801F05D14E
:101EB000641E620502D06D004041494121F4801149
:101EC000430875F1004350F1000041EB045170BC30
:101ED00070471CEB410F15D223F0004352EA430632
:101EE0000BD04FEA4C0CBCEB410F04D80C0D661E16
:101EF000342EB7DDEBE7801A994150EA410608BF5E
:101F00000021E4E708BF1CEB430F28BF6FF000017E
:101F1000DDE700002021090326311820ABBEF9E7D8
:101F20006A6E6B6C676D4E4F3435363700000000BB
:101F300000000000000000000000000000000000A1
:101F4000000000000000000000004E6F6E4D617345
:101F50006B61626C650000000048617264466175E7
:101F60006C740000000000004D656D4D616E61678E
:101F7000656D656E7400004275734661756C740022
:101F800000000000000055736167654661756C7460
:101F90000000000000000000000000000000000041
:101FA0000000000000000000000000000000000031
:101FB0000000000000000000000000000000000021
:101FC0000000000000000000000000000000000011
:101FD00000535643616C6C000000000000000000DC
:101FE00044656275674D6F6E69746F720000000022
:101FF000000000000000000000000000000050652C
:102000006E64535600000000000000000053797316
:102010005469636B0000000000000000444D413033
:102020000000000000000000000000444D413100AD
:1020300000000000000000000000444D413200009C
:10204000000000000000000000444D41330000008B
:102050000000000000000000444D4134000000007A
:1020600000000000000000444D4135000000000069
:10207000000000000000444D413600000000000058
:102080000000000000444D41370000000000000047
:1020900000000000444D4138000000000000000036
:1020A000000000444D413900000000000000000025
:1020B0000000444D413130000000000000000000ED
:1020C00000444D41313100000000000000000000DC
:1020D000444D413132000000000000000000004487
:1020E0004D41313300000000000000000000444D6D
:1020F00041313400000000000000000000444D4168
:10210000313500000000000000000000444D415F38
:102110004572726F720000000000004D434D0000D8
:10212000000000000000000000004654464C000083
:10213000000000000000000000526561645F436F12
:102140006C6C6973696F6E004C56445F4C56570057
:10215000000000000000004C4C5700000000000090
:102160000000000000005761746368646F6700003E
:102170000000000000524E47000000000000000078
:102180000000000049324330000000000000000061
:102190000000004932433100000000000000000050
:1021A0000000535049300000000000000000000013
:1021B0000053504931000000000000000000000002
:1021C00053504932000000000000000000000043AE
:1021D000414E305F4F525F4D425F62756600434132
:1021E0004E305F4275735F4F666600000043414E9C
:1021F000305F4572726F72000000000043414E3044
:102200005F54785F5761726E696E6743414E305F0D
:1022100052785F5761726E696E6743414E305F5707
:10222000616B655F5570000000526573657276657D
:102230006435310000000000526573657276656494
:102240003532000000000043414E315F4F525F4D78
:10225000425F6275660043414E315F4275735F4F66
:10226000666600000043414E315F4572726F720036
:102270000000000043414E315F54785F5761726E39
:10228000696E6743414E315F52785F5761726E6984
:102290006E6743414E315F57616B655F557000005B
:1022A0000052657365727665643539000000000080
:1022B0005265736572766564363000000000005523
:1022C000415254305F52585F54580000000055414D
:1022D0005254305F455252000000000000554152F8
:1022E00054315F52585F5458000000005541525419
:1022F000315F4552520000000000005541525432F7
:102300005F52585F54580000000055415254325FEC
:1023100045525200000000000055415254335F52B4
:10232000585F54580000000055415254335F4552E5
:102330005200000000000055415254345F52585F73
:1023400054580000000055415254345F4552520029
:10235000000000000055415254355F52585F5458F8
:102360000000000055415254355F455252000000B4
:102370000000004144433000000000000000000065
:102380000000414443310000000000000000000054
:1023900000434D503000000000000000000000002D
:1023A000434D5031000000000000000000000043D9
:1023B0004D503200000000000000000000004654B4
:1023C0004D30000000000000000000000046544DA9
:1023D00031000000000000000000000046544D32B3
:1023E0000000000000000000000000434D54000009
:1023F00000000000000000000000525443000000F4
:1024000000000000000000000052657365727665F0
:1024100064383300000000005049543000000000D0
:10242000000000000000005049543100000000008E
:10243000000000000000504954320000000000007D
:10244000000000000050495433000000000000006C
:102450000000000050444230000000000000000076
:102460000000005553423000000000000000000052
:1024700000005553424443440000000000000000A7
:1024800000454E45545F313538385F54696D65728B
:10249000454E45545F5472616E736D69740000451A
:1024A0004E45545F52656365697665000000454E90
:1024B00045545F4572726F7200000000004932534C
:1024C00030000000000000000000000053444843BA
:1024D0000000000000000000000000444143300004
:1024E00000000000000000000000444143310000F3
:1024F00000000000000000000054534930000000BC
:1025000000000000000000004D43470000000000F4
:10251000000000000000004C5054696D657200001E
:10252000000000000000526573657276656431300A
:102530003200000000504F525441000000000000E3
:1025400000000000504F5254420000000000000004
:10255000000000504F5254430000000000000000F3
:102560000000504F525444000000000000000000E2
:1025700000504F52544500000000000000000000D1
:102580005265736572766564313038000000005220
:1025900065736572766564313039000000005265FC
:1025A00073657276656431313000000000526573E6
:1025B00065727665643131310000000052657365E3
:1025C00072766564313132000000005265736572C5
:1025D00076656431313300000000526573657276B0
:1025E00065643131340000000052657365727665B0
:1025F00064313135000000005265736572766564A0
:1026000031313600000000526573657276656431C1
:1026100031370000000052657365727665643131B0
:102620003800000000526573657276656431313997
:102630000000000000B0034000B00B4000800340E9
:102640000090034000800B4000F00F4040F00F402E
:1026500080F00F40C0F00F4000F10F40F0000A1D65
:102660003000180032001801600018186400181AB1
:102670006E00181F780013187D00131A8200131CB7
:102680008C000E1296000E15A0000E18AA000E1B4C
:10269000B4000E1EC8000C1CE1000B1EFA000A1F3D
:1026A000000109080090044000A0044000B004406C
:1026B00000C0044000D0044000A0064000B0064026
:1026C00000C0064000D0064000A00E4000B00E4002
:1026D00002040101340EFF1F840EFF1F340EFF1F82
:1026E000340EFF1F00000000340EFF1F000000002A
:1026F000040CFF1FF00BFF1F000000000000000093
:1027000000000000000000000000000000000000C9
:102710000000000000000000E4480000E448000061
:10272000E4480000E4480000E4480000E4480000F9
:10273000E4480000FFFFFFFFFFFFFFFFE648000047
:10274000E4480000E4480000FFFFFFFFFFFF000037
:1027500080B50121282000F0F0FADFF86C13086042
:102760000121292000F0E9FADFF86013086001BDBB
:1027700070B403004FF6FF70002422000E00D2B2A6
:10278000F6B2B24218D22200D2B29A5C5040002275
:1027900015002A00D2B2082A0CDAC20706D580B288
:1027A00002004AF2010090EA520001E080B24008C3
:1027B0006D1CEEE7641CE0E780B270BC70472DE949
:1027C000F8418BB007A8102100F010FB03A81021DE
:1027D00000F00CFB684600210022002380E80E0078
:1027E000002400263000C0B2042817DA07ADDFF855
:1027F000E0023100C9B250F8210000F0FBFA3100CC
:10280000C9B245F821003000C0B255F8200003A934
:102810003200D2B241F82200761CE3E700252800FE
:10282000C0B2042816DA03A82900C9B250F8211052
:102830006A462B00DBB202F813102900C9B250F827
:102840002100000A69462A00D2B201EB4201487019
:102850006D1CE4E708216846FFF78AFF0600300098
:1028600080B24FF480716F4690FBF1F201FB1200D1
:102870003872300080B24FF4807190FBF1F08DF827
:1028800009005FF000084046C0B20A280ADA404654
:10289000C0B23856010049B2032000F0BBFB18F16A
:1028A0000108F0E70CB0BDE8F0812DE9F843040021
:1028B0000D008849884E306808602000096800F0E3
:1028C000C3FB5FF0804100F0FFFB0700306800F0C1
:1028D00079FC804689462800390000F097FC00F01A
:1028E00071FC7E4A7E4BFEF739FE42464B46FFF7AF
:1028F00053FA00F0FDFC3060BDE8F18338B5FFF716
:1029000027FF784C71480068A0F61B50FFF770F85D
:10291000754A764BFEF722FE00F0EAFC2060744D0B
:1029200040F6693068490968401AFFF761F8714A52
:10293000714BFEF713FE00F0DBFC286028686F493E
:1029400000F00AFD01D86E4828606E49286800F042
:1029500015FD00D2296021682868FFF7A6FF31BD68
:102960002DE9F04104000D00DFF89C81674821004B
:1029700000F016FD06005FF07E50290000F010FD0B
:10298000310000F043FCC8F80000614ED8F80000A8
:102990003060604FD8F8000038605F4A306811003E
:1029A00000F0DAFC01D85D4830605D4B30681900FA
:1029B00000F0E4FC00D233603868110000F0CCFC79
:1029C00001D8564838603868190000F0D7FC00D2AA
:1029D0003B603068002100F0BFFC06D251483168EE
:1029E00000F032FB5049086005E05048316800F0C3
:1029F0002BFB4D4908603868002100F0ADFC06D281
:102A00004848396800F020FB4949086005E047481C
:102A1000396800F019FB464908603068002100F071
:102A20009BFC12D84FF47A720021002000F06CFE5B
:102A30003D4801683F4800F0E9FB00F0E7FE020076
:102A40000221002000F060FE11E04FF47A720221B2
:102A5000002000F059FE37483349096800F0F4FAC5
:102A600000F0D4FE02000021002000F04DFE386886
:102A7000002100F071FC12D84FF47A72032100207B
:102A800000F042FE2A4801682A4800F0BFFB00F02F
:102A9000BDFE02000121002000F036FE11E04FF4DF
:102AA0007A720121002000F02FFE22482049096897
:102AB00000F0CAFA00F0AAFE02000321002000F094
:102AC00023FEBDE8F0810000200EFF1F240EFF1F33
:102AD000EC0DFF1F040EFF1F080EFF1F7B14AE47F7
:102AE000E17A743FFC0DFF1F9A9999999999D93F02
:102AF000000EFF1F54E3A59BC420B03F0100B44269
:102B00000000B4420000B4C2140EFF1F00000C42CB
:102B10000C0EFF1F100EFF1F01407644004076444C
:102B2000004076C400007A44180EFF1F00007AC4EB
:102B30001C0EFF1F000070C138B5040025006DB2E7
:102B40006D112800C0B2002802D001280DD019E074
:102B5000A148016851F000610160A048016831F0AE
:102B6000900101600168016010E09D48016851F02A
:102B7000006101609948016831F410410160016809
:102B8000016003E03321974800F066FE200040B268
:102B9000002800F08980012800F08680032800F0DA
:102BA000838008284ED0092851D00A2854D00B28F9
:102BB00057D00C285AD00D285DD00E2860D00F2891
:102BC00063D0102870D0112864D0122867D0132841
:102BD0006AD0142868D01A2866D01D2864D01E2810
:102BE00062D0202861D021285FD023285DD02428FE
:102BF0005CD025285FD0262862D0272865D02828D9
:102C000068D029286BD02A286ED02B2871D02C2888
:102C100074D02D2877D02E287AD02F287DD0302838
:102C200000F0858031287DD0322800F08080332864
:102C30007DD034287BD03A2879D03D2877D03E28E3
:102C400075D075E00021202000F086FE74E00021A0
:102C5000212000F081FE6FE00021072000F07CFEC3
:102C60006AE00021082000F077FE65E000212220C4
:102C700000F072FE60E00021232000F06DFE5BE0BA
:102C80000021402000F068FE56E00021412000F0C5
:102C900063FE51E00021982000F05EFE4CE0002130
:102CA000992000F059FE47E046E045E000218020F1
:102CB00000F052FE40E00021812000F04DFE3BE09C
:102CC0000021822000F048FE36E00021832000F041
:102CD00043FE31E00021202000F03EFE2CE00021E8
:102CE000212000F039FE27E00021242000F034FEEE
:102CF00022E00021252000F02FFE1DE000212620EB
:102D000000F02AFE18E00021272000F025FE13E045
:102D100000212A2000F020FE0EE000212B2000F0F0
:102D20001BFE09E00021112000F016FE04E003E084
:102D30009A212C4800F090FD31BDF8B504000D003B
:102D4000260076B276110027290049B2200040B251
:102D500000F01BF82449300040B251F82000006810
:102D60000006F7D5300040B251F82000006932006B
:102D700052B251F82220126832F0800233005BB266
:102D800051F823100A6080B2F2BD70B4020052B252
:102D9000521110F01F03144C0D006DB2AD0015F070
:102DA0000C0555F05005160076B254F82660B56053
:102DB0000425160076B254F82660F5601D00EDB2C9
:102DC00015F01F0555F04005160076B254F8264060
:102DD000256070BC704700003C80044018800440AF
:102DE00030800440A8450000240BFF1F002200F0A3
:102DF000F9BD0000C0F3C7517E390EDDC217D1F115
:102E0000200106DD000240F00040C8401044504060
:102E10007047D04380F000407047002070470000AA
:102E20002DE9F84304000D00200040B2002808D02E
:102E3000022828D016D3042847D035D3052855D0EA
:102E400065E0DFF8EC01016851F4806101604FF446
:102E50004071662000F080FD4FF44071672000F063
:102E60007BFD54E0DFF8C801016851F400610160A6
:102E70004FF44071432000F06FFD4FF44071442047
:102E800000F06AFD43E0DFF8A801016851F48051C9
:102E900001604FF44071632000F05EFD4FF440711B
:102EA000622000F059FD32E0DFF88401016851F43E
:102EB000005101604FF44071852000F04DFD4FF44A
:102EC0004071842000F048FD21E0DFF868010168CE
:102ED00051F4806101604FF440714E2000F03CFDE0
:102EE0004FF440714F2000F037FD10E0DFF844014F
:102EF000016851F4006101604FF44071892000F0D5
:102F00002BFD4FF44071882000F026FDFFE7DFF82D
:102F10002861200040B256F82000C07810F0F3007D
:102F2000210049B256F82110C870200040B256F86E
:102F300020008078210049B256F8211088702000C6
:102F400040B2002803D0200040B2012805D13B4800
:102F500007684FF47A70474304E0394807684FF434
:102F60007A7047432801B7FBF0F8404680B2B0F5CD
:102F7000005F02DB41F6FF708046B7FBF5F9404683
:102F800080B2B9EB0019484680B2202804DB40F239
:102F900003112C4800F060FC200040B256F82000DD
:102FA000007810F0E000C8F304210143220052B27F
:102FB00056F822201170210049B256F8211081F8EC
:102FC0000180210049B256F82110897A11F0E00100
:102FD00019F01F020A4323005BB256F823309A729D
:102FE000220052B256F82220127C52F088022300AE
:102FF0005BB256F823301A74220052B256F82220DF
:10300000D27852F00C0223005BB256F82330DA700B
:10301000BDE8F183084A03005BB252F823301B7904
:103020001B06F7D503005BB252F82320D17170471D
:103030003480044028800440A80BFF1F280EFF1F87
:10304000300EFF1F2447000090EA010F40F1E4809A
:1030500081F00041421A3CBF801A89184FF0004CA1
:10306000C0F3C752FF2A24D0C1F3C75313B3D21AF7
:10307000D2F1190327DD4CEA01214CFA03F321EACE
:103080000303D140C20D4CEA0020401834BF20EAAF
:103090000C004CEA5000D20553EA006373EB0C0CB1
:1030A00052EB1020420012F1807F38BF7047C00DF4
:1030B000C0057047490212BF9A4200EB5120F8E761
:1030C000D2F11703D9D5704710B5FF2313EAD054B6
:1030D0001DBF13EAD1529C429A4239E0A41ADA0782
:1030E00080EA0103134042EA012142EA0020421A29
:1030F0003CBF641E01EB4202090AB2FBF1FE01FB78
:103100001E221202B2FBF1F001FB10226EF30F201F
:103110001202B2FBF1FE4EEA00207F3406DDFE2CE7
:1031200024DA53EA500050EBC45010BDD4F102042D
:1031300001FB1E2240F08071192C1DDC21FA04F0E5
:10314000C4F12004A140114371F10042584110BD67
:103150009C421ABF03EAD1529A420FE080EA010E64
:103160000EF00043400004D0490016D143F0FF4068
:1031700010BD490008BFD343180010BD9C4205D1C3
:10318000D21AF7D001F00041484010BD4A0212BFE8
:103190000846484000F0004010BD4AB90902B1FAA3
:1031A00081F2914044B1A418C00140F000409EE774
:1031B000C90141F0004152420002B0FA80F4A0403F
:1031C000141B94E7C0F3C75181B1FF2906D0C11089
:1031D000400721F0E04101F16051704741020CBF0E
:1031E00040F4E0016FF000410020704700F0004122
:1031F00000020AD0B0FA80FC00FA0CF001F1605134
:10320000A1EB0C5101EBD0214005704790EA010F72
:103210007FF520AF81F00041431A4FF000423EBFDE
:103220005340C01AC91800BFD3095FEAD05C13EB42
:10323000400F34BFB3EB410F40E07CEBD1530CD3D4
:1032400042EA012122D8D1EB402009D3400A28BF0D
:103250005FEA500140EBCC507047401A15D0400255
:10326000B0FA80F2521C9040400A4FEA3C23B3EB84
:10327000026384BF00EB730007E040F400001A16FD
:10328000DB07C2F10102D04018437047182BFCDC69
:1032900031FA03F202FA03F3591A38BF42F001027D
:1032A000D2EB40203CBF4000ACF1010C5FEACC5CAB
:1032B000C20572F100414CEB5020704713EB400FF8
:1032C0000FD2C94209D0ACEBD153022B03DB490228
:1032D000172BDDDD70479143401AC042D5D1002045
:1032E000704713EB410FD0D36FF000007047000020
:1032F00001F000428B1AA3F16051B1F5801F0ADB87
:10330000B1F17F6F1FD242EAC102C10071F10041E9
:1033100042EB507070470B15C3F10903212B10D2FB
:10332000890241EA905180020128494141F000415F
:1033300021FA03F0C3F12003994071F1004150419B
:103340007047100070476FF0000013EB103F5CBF38
:10335000000E42EAC05070474FF0807C1CEB400FDB
:1033600094BF1CEB410F05E040EA010C1CEB0C0F75
:1033700001D28142704718BF884270474FF0807C6D
:103380001CEB400F94BF1CEB410F05E040EA010C21
:103390001CEB0C0F01D28842704718BF8142704766
:1033A000FF2212EAD05C1DBF12EAD153944593422A
:1033B0002BE09C44D30780EA01021A4043EA002034
:1033C00043EA0121A1FB0030C04238BF40007CF13C
:1033D0007F010BDBFE294ADA5B0842EAC15153EA5E
:1033E000006373F1004C51EB10207047D1F1080CD1
:1033F000DCF120012FDB5B0810FA01F10B4320FA0E
:103400000CF073F100415041704794451CBF02EA33
:10341000D153934280EA010202F000421DD04000E5
:1034200019D0490017D05BB9634514D00902B1FA2D
:1034300081F39940BCEB030CC00140F00040C1E7B0
:103440000002B0FA80FC10FA0CF0B3EB0C0CC901CE
:1034500041F00041B6E71000704740000AD0490033
:1034600008D010F1807F94BF11F1807F02E042F01C
:10347000FF407047D04370472DE9F84F04000D001E
:1034800016001F00200040B2002810D0200040B2DB
:10349000012803D0200040B2022803D1280040B206
:1034A000022804DB2E21DFF8500300F0D5F94FF499
:1034B0007A7ADFF84893D9F800000AFB00F0401050
:1034C000B04204D22F21DFF8300300F0C5F920000C
:1034D00040B2002803D0022864D048D37DE0DFF852
:1034E0002003016851F080710160280040B200287B
:1034F0000BD0022815D00ED304281ED017D30628CF
:1035000027D020D307282AD02FE04FF48061412014
:1035100000F022FA2AE04FF48061422000F01CFA09
:1035200024E04FF48061432000F016FA1EE04FF4CF
:103530008061442000F010FA18E04FF44071072039
:1035400000F00AFA12E04FF48061652000F004FAFE
:103550000CE04FF48061662000F0FEF906E04FF4C5
:103560008061672000F0F8F900E0CBE035E0DFF89B
:103570009002016851F000710160280040B20028FB
:1035800002D0012806D00BE04FF440710C2000F06F
:10359000E3F906E04FF440710D2000F0DDF900E0A2
:1035A000B0E01AE0DFF85C02016851F08071016060
:1035B000280040B2002802D0012806D00BE04FF4CA
:1035C00040710A2000F0C8F906E04FF440710B206A
:1035D00000F0C2F900E095E0FFE7D9F800900AFB9F
:1035E00009F95FEA69094846000CB0FBF6FA5FF09A
:1035F000000B504680B250FA0BF0012802DB1BF1A1
:10360000010BF6E75846C0B2082805DB4FF4867177
:10361000DFF8E40100F020F9484630FA0BF0B0FB87
:10362000F6F0210049B2002903D0022916D00BD3AD
:103630001EE0010089B2491C01FB07F14FF47A72C8
:10364000B1FBF2F1884613E0010089B2491C01FB8D
:1036500007F16422B1FBF2F1884609E0010089B26A
:10366000491C01FB07F16422B1FBF2F18846FFE738
:10367000DFF89411220052B251F822202B005BB2E5
:1036800002EBC30223005BB251F82330AC464FFA81
:103690008CFC03EBCC03DB6833F00403D360220023
:1036A00052B251F822202B005BB202EBC302282356
:1036B000D3605A46D2B212F0070252F02802230019
:1036C0005BB251F823301A60020092B223005BB261
:1036D00051F823309A60002223005BB251F8233066
:1036E000DA64220052B251F822202B005BB202EBC6
:1036F000C30243469BB21361002223005BB251F820
:1037000023104A60BDE8F18F2DE9F04180460D009D
:1037100016000024404640B2002811D0404640B276
:10372000012803D0404640B2022803D1280040B20D
:10373000022805DB40F24711DFF8BC0000F08CF8EE
:10374000404640B2002803D0022815D00BD31CE01D
:1037500040F2E930864205D34FF4A671DFF89800B5
:1037600000F07AF811E0652E05D34FF4A871DFF868
:10377000880000F071F808E0652E05D34FF4AA71B7
:10378000DFF8740000F068F8FFE7DFF87C004146DE
:1037900049B250F8211089680C00002CF5D0414640
:1037A00049B2002903D0022912D009D318E0611CC4
:1037B00001FB06F14FF47A72B1FBF2F10F000FE05A
:1037C000611C01FB06F16422B1FBF2F10F0007E07E
:1037D000611C01FB06F16422B1FBF2F10F00FFE76F
:1037E000414649B250F82100290049B200EBC1001E
:1037F0000761BDE8F081000040460000300EFF1F69
:103800003C800440308004402C0BFF1F00180CD279
:10381000010E7F3909D4D1F11F015DBFC00140F015
:103820000040C8406FF00000704700207047000063
:10383000DFF800F0650CFF1FDFF800F0870CFF1FBA
:10384000BFF34F8F3C490A6812F4E0623B480243E1
:103850000A60BFF34F8FFEE738B504000D002A0061
:103860002100374800F0D8F8FEE738B504000D0015
:10387000210049B20320FFF7CDFB200032BD10B577
:103880000024042000F0DCF8042000F013F90028E4
:1038900042D1002000F026F9042000F00BF90128A5
:1038A00001D101200400002000F03CF9254800F07F
:1038B000B3F84FF4FA7000F069F92000C0B20128A3
:1038C000EAD1042000F0F6F80028E5D1042000F049
:1038D000F1F8002806D1002000F024F9642000F05F
:1038E00055F9F3E7042000F0E5F8012806D100209F
:1038F00000F018F9322000F049F9F3E7124800F01F
:103900008BF8FFF795FF642000F040F90020FFF7E7
:1039100093FFFFF795FFBFE710BD10B50B48047884
:103920000B492200D2B20F2042430A442100C9B2FF
:10393000084800F071F810BD0CED00E00400FA0535
:103940001C480000C44800005048000004ED00E09E
:103950001C04FF1FB847000030B4204B1C684FF414
:1039600000750200D2B2520995402C431C601C4ADB
:103970000300DBB25B1152F823200300DBB213F02B
:103980001F0342F8231030BC704730B4134B1C683F
:103990004FF400750200D2B2520995402C431C60CE
:1039A00031F4E0610E4A0300DBB25B1152F82330C0
:1039B0000400E4B214F01F0453F8243013F4E0635D
:1039C00019430300DBB25B1152F823200300DBB282
:1039D00013F01F0342F8231030BC704738800440B6
:1039E000940BFF1F00B500BF130096469446103994
:1039F00028BFA0E80C50FAD85FEA417C28BF0CC071
:103A000048BF40F8042BC90728BF20F8022B48BF45
:103A100000F8012B00BD00000EB4C0B5024603A89B
:103A200000210190009101AB0121044878440C3041
:103A3000FCF7F2FC06BC5DF810FB00BF670E00004F
:103A400038B50400200040B208280EDA244D0022C8
:103A50000021200040B2285C00F0A4F803212000DF
:103A600040B2285CFFF791FF15E008200400200019
:103A7000441E40B200280ED0194D00220021200023
:103A800040B2285C00F08EF80321200040B2285C90
:103A9000FFF77BFFEBE731BD10B5040010482100B4
:103AA00049B2405C00F0F6F8002801D1002000E0A7
:103AB000012010BD10B50400200040B2FFF7ECFF5C
:103AC00000280AD10A2000F061F8200040B2FFF778
:103AD000E3FF002801D1002000E0012010BD00001C
:103AE0001004FF1F10B50400200040B2042808DABB
:103AF00001220121104823005BB2C05C00F052F8A3
:103B00000FE0042004002000441E40B2002808D02A
:103B100001220121084823005BB2C05C00F042F89A
:103B2000F1E710BD10B504000348210049B2405C24
:103B300000F093F810BD00001804FF1F30B40F49C7
:103B40000A6852F080720A600D490A6852F0010258
:103B50000A600C4A13680C4909684FF47A7491FBA7
:103B6000F4F404FB00F4E118994202D21568A9426A
:103B7000FCD315688D42FCD330BC7047FCED00E0EF
:103B8000001000E0041000E0280EFF1F10B5040034
:103B90002000441E002804D04FF47A70FFF7CEFFB7
:103BA000F6E710BDF8B504000D0016004FF4807163
:103BB0002000C0B2FFF7D0FE280040B2002812D18A
:103BC00044482100C9B2491150F821102200D2B254
:103BD000521150F822004269012314F01F00834063
:103BE0009A434A6138E001213A4A2000C0B24011AC
:103BF00052F820002300DBB25B1152F823305B69DE
:103C000014F01F0711FA07F73B4343613000C0B2BD
:103C1000002811D12000C0B2401152F820000368E2
:103C200014F01F00814033EA01012000C0B24011AE
:103C300052F8200001600FE02000C0B2401152F89D
:103C40002000036814F01F00814019432000C0B217
:103C5000401152F820000160F1BD38B504001D4D3F
:103C60002000C0B2401155F82000406914F01F0137
:103C7000C840C00703D47B211748FFF7EDFD2000A3
:103C8000C0B2401155F82010012214F01F008240EC
:103C9000CA6031BD38B504000E4D2000C0B24011DD
:103CA00055F82000406914F01F01C840C00703D533
:103CB0008C210948FFF7D0FD2000C0B2401155F813
:103CC0002000006914F01F04E04010F0010032BD34
:103CD00000000000380BFF1F8C460000DFF800F0EA
:103CE000A50DFF1F10B4DFF89413020052B231F893
:103CF0002210020052B2012AC0F27281020052B2B6
:103D0000112A80F26D81DFF87823002313700B00F5
:103D10009BB2652B02DA002353707DE00B009BB24F
:103D2000C92B02DA0123537076E00B009BB240F2FC
:103D30002D14A34202DA022353706DE00B009BB2F4
:103D400040F29114A34202DA0323537064E00B00A3
:103D50009BB240F2F514A34202DA042353705BE0F5
:103D60000B009BB240F25924A34202DA05235370A0
:103D700052E00B009BB240F2BD24A34202DA0623BC
:103D8000537049E00B009BB240F22134A34202DAA7
:103D90000723537040E00B009BB240F28534A342EE
:103DA00002DA0823537037E00B009BB240F2E9348B
:103DB000A34202DA092353702EE00B009BB240F2BB
:103DC0004D44A34202DA0A23537025E00B009BB254
:103DD00040F2B144A34202DA0B2353701CE00B0003
:103DE0009BB240F21554A34202DA0C23537013E045
:103DF0000B009BB240F27954A34202DA0D235370B8
:103E00000AE00B009BB240F2DD54A34202DA0E231B
:103E1000537001E00F2353700B009BB21A2B02DA90
:103E2000002393706AE00B009BB2332B02DA01236C
:103E3000937063E00B009BB24C2B02DA0223937069
:103E40005CE00B009BB2652B02DA0323937055E014
:103E50000B009BB27E2B02DA042393704EE00B0022
:103E60009BB2972B02DA0523937047E00B009BB2BD
:103E7000B02B02DA0623937040E00B009BB2C92BF3
:103E800002DA0723937039E00B009BB2E22B02DACF
:103E90000823937032E00B009BB2FB2B02DA09235C
:103EA00093702BE00B009BB2B3F58A7F02DA0A23F2
:103EB000937023E00B009BB240F22D14A34202DA70
:103EC0000B2393701AE00B009BB2B3F5A37F02DAC9
:103ED0000C23937012E00B009BB240F25F14A342DC
:103EE00002DA0D23937009E00B009BB2B3F5BC7F9F
:103EF00002DA0E23937001E00F2393700B009BB244
:103F00001A2B02DA0023D3706AE00B009BB2332B2A
:103F100002DA0123D37063E00B009BB24C2B02DA70
:103F20000223D3705CE00B009BB2652B02DA032303
:103F3000D37055E00B009BB27E2B02DA0423D370C2
:103F40004EE00B009BB2972B02DA0523D37047E0BB
:103F50000B009BB2B02B02DA0623D37040E00B00BB
:103F60009BB2C92B02DA0723D37039E00B009BB256
:103F7000E22B02DA0823D37032E00B009BB2FB2B5A
:103F800002DA0923D3702BE00B009BB2B3F58A7FD2
:103F900002DA0A23D37023E00B009BB240F22D1407
:103FA000A34202DA0B23D3701AE00B009BB2B3F5E5
:103FB000A37F02DA0C23D37012E00B009BB240F215
:103FC0005F14A34202DA0D23D37009E00B009BB209
:103FD000B3F5BC7F02DA0E23D37001E00F23D37058
:103FE00010BC704770B50400200040B2FFF77AFEA5
:103FF0002448017811F0FD010170017851F01001A1
:104000000170214DB8202870204E3078C006FBD4B6
:104010003078C0F381000228FAD11948C378827839
:1040200041780078FFF75AFE1448210049B200EBAE
:104030008101897811F01F01154A1170210049B2E0
:1040400000EB8101C97811F01F0151F04001114AC4
:10405000117031788906FCD531784906FCD529786C
:1040600011F03F0129703178C1F381010329FAD1A0
:1040700064B230F82400C0B270BD00004C0BFF1FCA
:10408000900BFF1F014006400040064006400640DE
:104090000440064005400640DFF800F059380000B3
:1040A0004A48F021017001780906FCD5007810F02B
:1040B000710F01D0002000E00120704744480168E2
:1040C00051F4002101604348016851F4002101606E
:1040D0003E4801780906FBD5F021017070471CB5F8
:1040E0000400210089B24FF400604143009109208F
:1040F000394908709DF80200384908709DF80100A0
:10410000374908709DF8000036490870FFF7C8FF6E
:10411000002801D100200DE0200080B2002808D145
:104120007FF0010240F20C41200080B200F003F861
:1041300000E0012016BD7CB506000C001500310022
:1041400089B24FF40060414311FA84F001902000DD
:1041500080B2042190FBF1F201FB1200002803D091
:10416000F5212148FFF798FF200080B240F60101B9
:10417000884203DBF7211C48FFF78EFF9DF80600FD
:10418000164908709DF80500154908709DF804004F
:104190001449087000959DF80300144908709DF8B3
:1041A0000200134908709DF80100124908709DF83B
:1041B000000011490870062007490870FFF770FFDA
:1041C000002801D1002000E0012076BD000002405F
:1041D00004F0014008F001400700024006000240E0
:1041E0000500024004000240F44500000B000240BC
:1041F0000A0002400900024008000240F0B40F4EDD
:104200003468356855F47F0535600D0615F0706526
:1042100055EA0075170517F470073D431F0417F49E
:1042200070273D43064F3D6000252F00FFB29F429F
:1042300001D26D1CF9E73460F0BC704700F001401A
:1042400044800440012210F01F018A4040490300CD
:104250005BB25B0941F823207047000010B572B6CD
:104260002820FEF769FC2920FEF766FC4FF4165162
:104270000320FEF7D5FD42F210744FF47A7322004A
:1042800000210020FFF7F8F84FF47A732200012193
:104290000020FFF7F1F84FF47A732200022100208A
:1042A000FFF7EAF84FF47A73220003210020FFF7AA
:1042B000E3F8002201216F20FFF774FC00220121A6
:1042C0001320FFF76FFC002201210520FFF76AFC95
:1042D000002201211820FFF765FC0020FFF702FCF7
:1042E0001C48016805204143002000F041F80FF20E
:1042F0003D01542000F08BF84420FFF7A3FF62B685
:1043000040F6B830FFF742FC134C1448006800F048
:1043100095F8206012480068606012480068A0604C
:1043200011480068E060FEF74AFAEDE780B500202A
:10433000FFF7F8FBFEF7E2FA094801680A4800684F
:10434000FEF70EFB0948016851F00101016001BD53
:1043500000E100E0300EFF1FEC0DFF1F200EFF1FDD
:10436000FC0DFF1F000EFF1F040EFF1F0C7103400A
:1043700038B505000C00002C03D124211748FFF7A5
:104380006BFA1748016851F40001016000201549DB
:1043900008601548611E2A0052B21201815029009E
:1043A00049B209010144C96851F001012A0052B221
:1043B00012010244D160290049B20901014489680F
:1043C000490849002A0052B21201024491600321B7
:1043D0002A0052B212011044816031BDD84600005B
:1043E0003C800440007003400071034010B504009D
:1043F0004FF4007094FBF0F100FB1140002803D053
:104400001E210B48FFF728FA0A48046010BD70B55A
:1044100004000D00084E07480068B04203D0302168
:104420000348FFF719FA200040B246F8205070BD4B
:104430007047000008ED00E00000FF1FC217504069
:10444000801AB0FA80F10AD08840D1F19D01D207DC
:1044500042EAC151020672F1004241EB102070475E
:1044600080B500F083F800F023F800F005F8FFF7BE
:1044700006FAFFF7F3FEFEE710B52E4C0E20FFF70D
:10448000B1FD20602C4922684FF47A7042430A60E3
:1044900008682A490968C1F30361491CB0FBF1F0BF
:1044A000274908605FF4E1310320FEF7B9FC10BD35
:1044B0002DE9F0412349244888420AD00022140003
:1044C000B4F5826F05D251F8242040F82420641CF2
:1044D000F6E7FFF78BFF1D4B1D4A1E498E1A300071
:1044E000461E002804D010781870521C5B1CF6E79A
:1044F000194D1A4C671B3800471E002803D00020B6
:1045000028706D1CF7E7DFF858C0DFF858E0DFF8D7
:104510005880B8EB0E063000461E002808D09EF8E2
:1045200000008CF800001EF1010E1CF1010CF2E7F6
:10453000BDE8F0812C0EFF1F280EFF1F44800440B1
:10454000300EFF1F000000000000FF1F1004FF1FBF
:10455000201F000050270000EC0DFF1F880EFF1FDA
:10456000400CFF1F984000004442000080B500F05E
:1045700007F80B490A884FF6FE7002400A8001BD19
:10458000EFF3118072B607494CF220520A804DF6C3
:1045900028120A800100C9B2002900D162B6704712
:1045A000002005400E200540433A5C557365727348
:1045B0005C32323736375C4465736B746F705C65A0
:1045C0007465726E616C35322D4B7A68696C692D39
:1045D0006D61737465725C4B7A68696C695C436881
:1045E00069705C7372635C4D4B36305F6164632E3F
:1045F00063000000433A5C55736572735C32323776
:1046000036375C4465736B746F705C657465726E8D
:10461000616C35322D4B7A68696C692D6D617374EC
:1046200065725C4B7A68696C695C436869705C733D
:1046300072635C4D4B36305F666C6173682E63004D
:10464000433A5C55736572735C32323736375C447B
:1046500065736B746F705C657465726E616C353216
:104660002D4B7A68696C692D6D61737465725C4B52
:104670007A68696C695C436869705C7372635C4DED
:104680004B36305F66746D2E63000000433A5C5514
:10469000736572735C32323736375C4465736B74A2
:1046A0006F705C657465726E616C35322D4B7A6823
:1046B000696C692D6D61737465725C4B7A68696CA5
:1046C000695C436869705C7372635C4D4B36305F44
:1046D0006770696F2E630000433A5C5573657273AF
:1046E0005C32323736375C4465736B746F705C656F
:1046F0007465726E616C35322D4B7A68696C692D08
:104700006D61737465725C4B7A68696C695C43684F
:1047100069705C7372635C4D4B36305F5049542E48
:1047200063000000433A5C55736572735C32323744
:1047300036375C4465736B746F705C657465726E5C
:10474000616C35322D4B7A68696C692D6D617374BB
:1047500065725C4B7A68696C695C436869705C730C
:1047600072635C4D4B36305F756172742E6300006E
:10477000433A5C55736572735C32323736375C444A
:1047800065736B746F705C657465726E616C3532E5
:104790002D4B7A68696C692D6D61737465725C4B21
:1047A0007A68696C695C436869705C7372635C6D9C
:1047B0006973632E630000000A2A2A2A2A64656648
:1047C00061756C745F69737220656E74657265647F
:1047D000206F6E20766563746F722025642A2A2A02
:1047E0002A2A0D0A0A257320496E74657272757043
:1047F0007400000010B5074979441831064C7C4418
:10480000163404E00A68081D114488470146A14295
:10481000F8D110BD2C000000380000004173736512
:104820007274696F6E206661696C656420696E20C0
:104830002573206174206C696E652025640A000070
:10484000CBC9FFFF9C000000EC0DFF1F0000000023
:104850000ABDF8D0D0BDE2CBF8B2D9D7F7A3ACC728
:10486000EBD6D8D0C2CBA2C8EBB9CCBCFE000000BE
:1048700000F00DF8002801D0FFF7BCFFAFF3008077
:104880000020AFF30080FFF7E9FC00F002F8012000
:10489000704700F001B8000007463846FDF73AFBC4
:1048A000FBE738B504460D46284600F005F8A84257
:1048B00018BF0024204632BD0149FEF7D6BF00BF15
:1048C000C00BFF1F0ABDF8C8EBCBC0D1ADBBB7B55D
:1048D000C8B4FDA3A1000000AFF30080AFF30080D7
:0848E000FFF7C6FF00002E00E7
:04000005000048D9D6
:00000001FF
